{
  "_format": "hh-sol-artifact-1",
  "contractName": "PaymentSystem",
  "sourceName": "contracts/PaymentSystem.sol",
  "abi": [
    {
      "inputs": [
        {
          "internalType": "uint256",
          "name": "_initialFeePercentage",
          "type": "uint256"
        }
      ],
      "stateMutability": "nonpayable",
      "type": "constructor"
    },
    {
      "inputs": [
        {
          "internalType": "address",
          "name": "owner",
          "type": "address"
        }
      ],
      "name": "OwnableInvalidOwner",
      "type": "error"
    },
    {
      "inputs": [
        {
          "internalType": "address",
          "name": "account",
          "type": "address"
        }
      ],
      "name": "OwnableUnauthorizedAccount",
      "type": "error"
    },
    {
      "anonymous": false,
      "inputs": [
        {
          "indexed": false,
          "internalType": "uint256",
          "name": "newFeePercentage",
          "type": "uint256"
        }
      ],
      "name": "FeePercentageUpdated",
      "type": "event"
    },
    {
      "anonymous": false,
      "inputs": [
        {
          "indexed": false,
          "internalType": "uint256",
          "name": "amount",
          "type": "uint256"
        }
      ],
      "name": "FeesWithdrawn",
      "type": "event"
    },
    {
      "anonymous": false,
      "inputs": [
        {
          "indexed": true,
          "internalType": "address",
          "name": "previousOwner",
          "type": "address"
        },
        {
          "indexed": true,
          "internalType": "address",
          "name": "newOwner",
          "type": "address"
        }
      ],
      "name": "OwnershipTransferred",
      "type": "event"
    },
    {
      "anonymous": false,
      "inputs": [
        {
          "indexed": true,
          "internalType": "address",
          "name": "from",
          "type": "address"
        },
        {
          "indexed": true,
          "internalType": "address",
          "name": "to",
          "type": "address"
        },
        {
          "indexed": false,
          "internalType": "uint256",
          "name": "amount",
          "type": "uint256"
        },
        {
          "indexed": false,
          "internalType": "string",
          "name": "message",
          "type": "string"
        },
        {
          "indexed": false,
          "internalType": "uint256",
          "name": "timestamp",
          "type": "uint256"
        }
      ],
      "name": "PaymentRequested",
      "type": "event"
    },
    {
      "anonymous": false,
      "inputs": [
        {
          "indexed": true,
          "internalType": "address",
          "name": "from",
          "type": "address"
        },
        {
          "indexed": true,
          "internalType": "address",
          "name": "to",
          "type": "address"
        },
        {
          "indexed": false,
          "internalType": "uint256",
          "name": "amount",
          "type": "uint256"
        },
        {
          "indexed": false,
          "internalType": "string",
          "name": "message",
          "type": "string"
        },
        {
          "indexed": false,
          "internalType": "uint256",
          "name": "timestamp",
          "type": "uint256"
        }
      ],
      "name": "PaymentSent",
      "type": "event"
    },
    {
      "anonymous": false,
      "inputs": [
        {
          "indexed": true,
          "internalType": "uint256",
          "name": "requestIndex",
          "type": "uint256"
        }
      ],
      "name": "RequestPaid",
      "type": "event"
    },
    {
      "anonymous": false,
      "inputs": [
        {
          "indexed": true,
          "internalType": "address",
          "name": "user",
          "type": "address"
        },
        {
          "indexed": false,
          "internalType": "string",
          "name": "username",
          "type": "string"
        }
      ],
      "name": "UsernameSet",
      "type": "event"
    },
    {
      "inputs": [],
      "name": "MAX_FEE_PERCENTAGE",
      "outputs": [
        {
          "internalType": "uint256",
          "name": "",
          "type": "uint256"
        }
      ],
      "stateMutability": "view",
      "type": "function"
    },
    {
      "inputs": [],
      "name": "collectedFees",
      "outputs": [
        {
          "internalType": "uint256",
          "name": "",
          "type": "uint256"
        }
      ],
      "stateMutability": "view",
      "type": "function"
    },
    {
      "inputs": [],
      "name": "feePercentage",
      "outputs": [
        {
          "internalType": "uint256",
          "name": "",
          "type": "uint256"
        }
      ],
      "stateMutability": "view",
      "type": "function"
    },
    {
      "inputs": [],
      "name": "getContractBalance",
      "outputs": [
        {
          "internalType": "uint256",
          "name": "",
          "type": "uint256"
        }
      ],
      "stateMutability": "view",
      "type": "function"
    },
    {
      "inputs": [],
      "name": "getTransactions",
      "outputs": [
        {
          "components": [
            {
              "internalType": "address",
              "name": "sender",
              "type": "address"
            },
            {
              "internalType": "address",
              "name": "receiver",
              "type": "address"
            },
            {
              "internalType": "uint256",
              "name": "amount",
              "type": "uint256"
            },
            {
              "internalType": "string",
              "name": "message",
              "type": "string"
            },
            {
              "internalType": "uint256",
              "name": "timestamp",
              "type": "uint256"
            },
            {
              "internalType": "string",
              "name": "senderUsername",
              "type": "string"
            },
            {
              "internalType": "string",
              "name": "receiverUsername",
              "type": "string"
            },
            {
              "internalType": "bool",
              "name": "isRequest",
              "type": "bool"
            },
            {
              "internalType": "bool",
              "name": "isPaid",
              "type": "bool"
            }
          ],
          "internalType": "struct PaymentSystem.Transaction[]",
          "name": "",
          "type": "tuple[]"
        }
      ],
      "stateMutability": "view",
      "type": "function"
    },
    {
      "inputs": [
        {
          "internalType": "address",
          "name": "account",
          "type": "address"
        }
      ],
      "name": "getUsername",
      "outputs": [
        {
          "internalType": "string",
          "name": "",
          "type": "string"
        }
      ],
      "stateMutability": "view",
      "type": "function"
    },
    {
      "inputs": [],
      "name": "owner",
      "outputs": [
        {
          "internalType": "address",
          "name": "",
          "type": "address"
        }
      ],
      "stateMutability": "view",
      "type": "function"
    },
    {
      "inputs": [
        {
          "internalType": "uint256",
          "name": "requestIndex",
          "type": "uint256"
        }
      ],
      "name": "payRequest",
      "outputs": [],
      "stateMutability": "payable",
      "type": "function"
    },
    {
      "inputs": [],
      "name": "renounceOwnership",
      "outputs": [],
      "stateMutability": "nonpayable",
      "type": "function"
    },
    {
      "inputs": [
        {
          "internalType": "address",
          "name": "from",
          "type": "address"
        },
        {
          "internalType": "uint256",
          "name": "amount",
          "type": "uint256"
        },
        {
          "internalType": "string",
          "name": "message",
          "type": "string"
        }
      ],
      "name": "requestPayment",
      "outputs": [],
      "stateMutability": "nonpayable",
      "type": "function"
    },
    {
      "inputs": [
        {
          "internalType": "address payable",
          "name": "to",
          "type": "address"
        },
        {
          "internalType": "string",
          "name": "message",
          "type": "string"
        }
      ],
      "name": "sendPayment",
      "outputs": [],
      "stateMutability": "payable",
      "type": "function"
    },
    {
      "inputs": [
        {
          "internalType": "uint256",
          "name": "_newFeePercentage",
          "type": "uint256"
        }
      ],
      "name": "setFeePercentage",
      "outputs": [],
      "stateMutability": "nonpayable",
      "type": "function"
    },
    {
      "inputs": [
        {
          "internalType": "string",
          "name": "username",
          "type": "string"
        }
      ],
      "name": "setUsername",
      "outputs": [],
      "stateMutability": "nonpayable",
      "type": "function"
    },
    {
      "inputs": [
        {
          "internalType": "uint256",
          "name": "",
          "type": "uint256"
        }
      ],
      "name": "transactions",
      "outputs": [
        {
          "internalType": "address",
          "name": "sender",
          "type": "address"
        },
        {
          "internalType": "address",
          "name": "receiver",
          "type": "address"
        },
        {
          "internalType": "uint256",
          "name": "amount",
          "type": "uint256"
        },
        {
          "internalType": "string",
          "name": "message",
          "type": "string"
        },
        {
          "internalType": "uint256",
          "name": "timestamp",
          "type": "uint256"
        },
        {
          "internalType": "string",
          "name": "senderUsername",
          "type": "string"
        },
        {
          "internalType": "string",
          "name": "receiverUsername",
          "type": "string"
        },
        {
          "internalType": "bool",
          "name": "isRequest",
          "type": "bool"
        },
        {
          "internalType": "bool",
          "name": "isPaid",
          "type": "bool"
        }
      ],
      "stateMutability": "view",
      "type": "function"
    },
    {
      "inputs": [
        {
          "internalType": "address",
          "name": "newOwner",
          "type": "address"
        }
      ],
      "name": "transferOwnership",
      "outputs": [],
      "stateMutability": "nonpayable",
      "type": "function"
    },
    {
      "inputs": [],
      "name": "withdrawFees",
      "outputs": [],
      "stateMutability": "nonpayable",
      "type": "function"
    }
  ],
  "bytecode": "0x60806040523480156200001157600080fd5b50604051620033b0380380620033b0833981810160405281019062000037919062000219565b33600073ffffffffffffffffffffffffffffffffffffffff168173ffffffffffffffffffffffffffffffffffffffff1603620000ad5760006040517f1e4fbdf7000000000000000000000000000000000000000000000000000000008152600401620000a4919062000290565b60405180910390fd5b620000be816200011560201b60201c565b506101f481111562000107576040517f08c379a0000000000000000000000000000000000000000000000000000000008152600401620000fe906200030e565b60405180910390fd5b806003819055505062000330565b60008060009054906101000a900473ffffffffffffffffffffffffffffffffffffffff169050816000806101000a81548173ffffffffffffffffffffffffffffffffffffffff021916908373ffffffffffffffffffffffffffffffffffffffff1602179055508173ffffffffffffffffffffffffffffffffffffffff168173ffffffffffffffffffffffffffffffffffffffff167f8be0079c531659141344cd1fd0a4f28419497f9722a3daafe3b4186f6b6457e060405160405180910390a35050565b600080fd5b6000819050919050565b620001f381620001de565b8114620001ff57600080fd5b50565b6000815190506200021381620001e8565b92915050565b600060208284031215620002325762000231620001d9565b5b6000620002428482850162000202565b91505092915050565b600073ffffffffffffffffffffffffffffffffffffffff82169050919050565b600062000278826200024b565b9050919050565b6200028a816200026b565b82525050565b6000602082019050620002a760008301846200027f565b92915050565b600082825260208201905092915050565b7f496e697469616c206665652070657263656e7461676520746f6f206869676800600082015250565b6000620002f6601f83620002ad565b91506200030382620002be565b602082019050919050565b600060208201905081810360008301526200032981620002e7565b9050919050565b61307080620003406000396000f3fe6080604052600436106100f25760003560e01c80638da5cb5b1161008a578063ae06c1b711610059578063ae06c1b7146102cd578063ce43c032146102f6578063ed59313a14610333578063f2fde38b1461035c576100f2565b80638da5cb5b146102075780639003adfe146102325780639ace38c21461025d578063a001ecdd146102a2576100f2565b80636f9fb98a116100c65780636f9fb98a1461017e578063715018a6146101a957806383920e90146101c057806385d6bff1146101eb576100f2565b80621bd972146100f7578063476343ee14610120578063558e44d31461013757806363d4dd3b14610162575b600080fd5b34801561010357600080fd5b5061011e60048036038101906101199190611dd0565b610385565b005b34801561012c57600080fd5b506101356108f4565b005b34801561014357600080fd5b5061014c6109f9565b6040516101599190611e53565b60405180910390f35b61017c60048036038101906101779190611e6e565b6109ff565b005b34801561018a57600080fd5b50610193610d96565b6040516101a09190611e53565b60405180910390f35b3480156101b557600080fd5b506101be610d9e565b005b3480156101cc57600080fd5b506101d5610db2565b6040516101e291906120f9565b60405180910390f35b61020560048036038101906102009190612159565b6110be565b005b34801561021357600080fd5b5061021c61166d565b60405161022991906121c8565b60405180910390f35b34801561023e57600080fd5b50610247611696565b6040516102549190611e53565b60405180910390f35b34801561026957600080fd5b50610284600480360381019061027f9190611e6e565b61169c565b6040516102999998979695949392919061223c565b60405180910390f35b3480156102ae57600080fd5b506102b76118ec565b6040516102c49190611e53565b60405180910390f35b3480156102d957600080fd5b506102f460048036038101906102ef9190611e6e565b6118f2565b005b34801561030257600080fd5b5061031d600480360381019061031891906122de565b611980565b60405161032a919061230b565b60405180910390f35b34801561033f57600080fd5b5061035a6004803603810190610355919061232d565b611a51565b005b34801561036857600080fd5b50610383600480360381019061037e91906122de565b611af4565b005b600083116103c8576040517f08c379a00000000000000000000000000000000000000000000000000000000081526004016103bf906123c6565b60405180910390fd5b600073ffffffffffffffffffffffffffffffffffffffff168473ffffffffffffffffffffffffffffffffffffffff1603610437576040517f08c379a000000000000000000000000000000000000000000000000000000000815260040161042e90612432565b60405180910390fd5b3373ffffffffffffffffffffffffffffffffffffffff168473ffffffffffffffffffffffffffffffffffffffff16036104a5576040517f08c379a000000000000000000000000000000000000000000000000000000000815260040161049c906124c4565b60405180910390fd5b6101188282905011156104ed576040517f08c379a00000000000000000000000000000000000000000000000000000000081526004016104e490612530565b60405180910390fd5b60026040518061012001604052803373ffffffffffffffffffffffffffffffffffffffff1681526020018673ffffffffffffffffffffffffffffffffffffffff16815260200185815260200184848080601f016020809104026020016040519081016040528093929190818152602001838380828437600081840152601f19601f820116905080830192505050505050508152602001428152602001600160003373ffffffffffffffffffffffffffffffffffffffff1673ffffffffffffffffffffffffffffffffffffffff16815260200190815260200160002080546105d39061257f565b80601f01602080910402602001604051908101604052809291908181526020018280546105ff9061257f565b801561064c5780601f106106215761010080835404028352916020019161064c565b820191906000526020600020905b81548152906001019060200180831161062f57829003601f168201915b50505050508152602001600160008873ffffffffffffffffffffffffffffffffffffffff1673ffffffffffffffffffffffffffffffffffffffff16815260200190815260200160002080546106a09061257f565b80601f01602080910402602001604051908101604052809291908181526020018280546106cc9061257f565b80156107195780601f106106ee57610100808354040283529160200191610719565b820191906000526020600020905b8154815290600101906020018083116106fc57829003601f168201915b5050505050815260200160011515815260200160001515815250908060018154018082558091505060019003906000526020600020906008020160009091909190915060008201518160000160006101000a81548173ffffffffffffffffffffffffffffffffffffffff021916908373ffffffffffffffffffffffffffffffffffffffff16021790555060208201518160010160006101000a81548173ffffffffffffffffffffffffffffffffffffffff021916908373ffffffffffffffffffffffffffffffffffffffff160217905550604082015181600201556060820151816003019081610809919061278b565b506080820151816004015560a0820151816005019081610829919061278b565b5060c082015181600601908161083f919061278b565b5060e08201518160070160006101000a81548160ff0219169083151502179055506101008201518160070160016101000a81548160ff02191690831515021790555050508373ffffffffffffffffffffffffffffffffffffffff163373ffffffffffffffffffffffffffffffffffffffff167f127bc6be5af16cacedd640d3c5688a4c07815499ac0f88ec7633ac31a5956d76858585426040516108e69493929190612899565b60405180910390a350505050565b6108fc611b7a565b600060045490506000600481905550600061091561166d565b73ffffffffffffffffffffffffffffffffffffffff16826040516109389061290a565b60006040518083038185875af1925050503d8060008114610975576040519150601f19603f3d011682016040523d82523d6000602084013e61097a565b606091505b50509050806109be576040517f08c379a00000000000000000000000000000000000000000000000000000000081526004016109b59061296b565b60405180910390fd5b7f9800e6f57aeb4360eaa72295a820a4293e1e66fbfcabcd8874ae141304a76deb826040516109ed9190611e53565b60405180910390a15050565b6101f481565b6002805490508110610a46576040517f08c379a0000000000000000000000000000000000000000000000000000000008152600401610a3d906129d7565b60405180910390fd5b600060028281548110610a5c57610a5b6129f7565b5b906000526020600020906008020190508060070160009054906101000a900460ff16610abd576040517f08c379a0000000000000000000000000000000000000000000000000000000008152600401610ab490612a72565b60405180910390fd5b8060070160019054906101000a900460ff1615610b0f576040517f08c379a0000000000000000000000000000000000000000000000000000000008152600401610b0690612ade565b60405180910390fd5b8060010160009054906101000a900473ffffffffffffffffffffffffffffffffffffffff1673ffffffffffffffffffffffffffffffffffffffff163373ffffffffffffffffffffffffffffffffffffffff1614610ba1576040517f08c379a0000000000000000000000000000000000000000000000000000000008152600401610b9890612b70565b60405180910390fd5b80600201543414610be7576040517f08c379a0000000000000000000000000000000000000000000000000000000008152600401610bde90612bdc565b60405180910390fd5b60008160000160009054906101000a900473ffffffffffffffffffffffffffffffffffffffff1673ffffffffffffffffffffffffffffffffffffffff1634604051610c319061290a565b60006040518083038185875af1925050503d8060008114610c6e576040519150601f19603f3d011682016040523d82523d6000602084013e610c73565b606091505b5050905080610cb7576040517f08c379a0000000000000000000000000000000000000000000000000000000008152600401610cae90612c48565b60405180910390fd5b60018260070160016101000a81548160ff0219169083151502179055508160000160009054906101000a900473ffffffffffffffffffffffffffffffffffffffff1673ffffffffffffffffffffffffffffffffffffffff163373ffffffffffffffffffffffffffffffffffffffff167fda515d405df3308cfeb0f865bbc8fa44300e8e9bcf76dbe16a404ecd52c51755348560030142604051610d5c93929190612cec565b60405180910390a3827fc6cd0a365a4a735e53cb7919a6d050782900166aacc1210aef8b7ec68ff2dd7b60405160405180910390a2505050565b600047905090565b610da6611b7a565b610db06000611c01565b565b60606002805480602002602001604051908101604052809291908181526020016000905b828210156110b55783829060005260206000209060080201604051806101200160405290816000820160009054906101000a900473ffffffffffffffffffffffffffffffffffffffff1673ffffffffffffffffffffffffffffffffffffffff1673ffffffffffffffffffffffffffffffffffffffff1681526020016001820160009054906101000a900473ffffffffffffffffffffffffffffffffffffffff1673ffffffffffffffffffffffffffffffffffffffff1673ffffffffffffffffffffffffffffffffffffffff16815260200160028201548152602001600382018054610ec09061257f565b80601f0160208091040260200160405190810160405280929190818152602001828054610eec9061257f565b8015610f395780601f10610f0e57610100808354040283529160200191610f39565b820191906000526020600020905b815481529060010190602001808311610f1c57829003601f168201915b5050505050815260200160048201548152602001600582018054610f5c9061257f565b80601f0160208091040260200160405190810160405280929190818152602001828054610f889061257f565b8015610fd55780601f10610faa57610100808354040283529160200191610fd5565b820191906000526020600020905b815481529060010190602001808311610fb857829003601f168201915b50505050508152602001600682018054610fee9061257f565b80601f016020809104026020016040519081016040528092919081815260200182805461101a9061257f565b80156110675780601f1061103c57610100808354040283529160200191611067565b820191906000526020600020905b81548152906001019060200180831161104a57829003601f168201915b505050505081526020016007820160009054906101000a900460ff161515151581526020016007820160019054906101000a900460ff16151515158152505081526020019060010190610dd6565b50505050905090565b60003411611101576040517f08c379a00000000000000000000000000000000000000000000000000000000081526004016110f8906123c6565b60405180910390fd5b600073ffffffffffffffffffffffffffffffffffffffff168373ffffffffffffffffffffffffffffffffffffffff1603611170576040517f08c379a000000000000000000000000000000000000000000000000000000000815260040161116790612d76565b60405180910390fd5b6000612710600354346111839190612dc5565b61118d9190612e36565b90506000813461119d9190612e67565b905081600460008282546111b19190612e9b565b9250508190555060008573ffffffffffffffffffffffffffffffffffffffff16826040516111de9061290a565b60006040518083038185875af1925050503d806000811461121b576040519150601f19603f3d011682016040523d82523d6000602084013e611220565b606091505b5050905080611264576040517f08c379a000000000000000000000000000000000000000000000000000000000815260040161125b90612c48565b60405180910390fd5b60026040518061012001604052803373ffffffffffffffffffffffffffffffffffffffff1681526020018873ffffffffffffffffffffffffffffffffffffffff16815260200134815260200187878080601f016020809104026020016040519081016040528093929190818152602001838380828437600081840152601f19601f820116905080830192505050505050508152602001428152602001600160003373ffffffffffffffffffffffffffffffffffffffff1673ffffffffffffffffffffffffffffffffffffffff168152602001908152602001600020805461134a9061257f565b80601f01602080910402602001604051908101604052809291908181526020018280546113769061257f565b80156113c35780601f10611398576101008083540402835291602001916113c3565b820191906000526020600020905b8154815290600101906020018083116113a657829003601f168201915b50505050508152602001600160008a73ffffffffffffffffffffffffffffffffffffffff1673ffffffffffffffffffffffffffffffffffffffff16815260200190815260200160002080546114179061257f565b80601f01602080910402602001604051908101604052809291908181526020018280546114439061257f565b80156114905780601f1061146557610100808354040283529160200191611490565b820191906000526020600020905b81548152906001019060200180831161147357829003601f168201915b5050505050815260200160001515815260200160011515815250908060018154018082558091505060019003906000526020600020906008020160009091909190915060008201518160000160006101000a81548173ffffffffffffffffffffffffffffffffffffffff021916908373ffffffffffffffffffffffffffffffffffffffff16021790555060208201518160010160006101000a81548173ffffffffffffffffffffffffffffffffffffffff021916908373ffffffffffffffffffffffffffffffffffffffff160217905550604082015181600201556060820151816003019081611580919061278b565b506080820151816004015560a08201518160050190816115a0919061278b565b5060c08201518160060190816115b6919061278b565b5060e08201518160070160006101000a81548160ff0219169083151502179055506101008201518160070160016101000a81548160ff02191690831515021790555050508573ffffffffffffffffffffffffffffffffffffffff163373ffffffffffffffffffffffffffffffffffffffff167fda515d405df3308cfeb0f865bbc8fa44300e8e9bcf76dbe16a404ecd52c517553488884260405161165d9493929190612899565b60405180910390a3505050505050565b60008060009054906101000a900473ffffffffffffffffffffffffffffffffffffffff16905090565b60045481565b600281815481106116ac57600080fd5b90600052602060002090600802016000915090508060000160009054906101000a900473ffffffffffffffffffffffffffffffffffffffff16908060010160009054906101000a900473ffffffffffffffffffffffffffffffffffffffff16908060020154908060030180546117219061257f565b80601f016020809104026020016040519081016040528092919081815260200182805461174d9061257f565b801561179a5780601f1061176f5761010080835404028352916020019161179a565b820191906000526020600020905b81548152906001019060200180831161177d57829003601f168201915b5050505050908060040154908060050180546117b59061257f565b80601f01602080910402602001604051908101604052809291908181526020018280546117e19061257f565b801561182e5780601f106118035761010080835404028352916020019161182e565b820191906000526020600020905b81548152906001019060200180831161181157829003601f168201915b5050505050908060060180546118439061257f565b80601f016020809104026020016040519081016040528092919081815260200182805461186f9061257f565b80156118bc5780601f10611891576101008083540402835291602001916118bc565b820191906000526020600020905b81548152906001019060200180831161189f57829003601f168201915b5050505050908060070160009054906101000a900460ff16908060070160019054906101000a900460ff16905089565b60035481565b6118fa611b7a565b6101f481111561193f576040517f08c379a000000000000000000000000000000000000000000000000000000000815260040161193690612f1b565b60405180910390fd5b806003819055507f74516f05eb4bd2461d57aa1e935ee553f86a3e02bfed7759f2f772915de3d9be816040516119759190611e53565b60405180910390a150565b6060600160008373ffffffffffffffffffffffffffffffffffffffff1673ffffffffffffffffffffffffffffffffffffffff16815260200190815260200160002080546119cc9061257f565b80601f01602080910402602001604051908101604052809291908181526020018280546119f89061257f565b8015611a455780601f10611a1a57610100808354040283529160200191611a45565b820191906000526020600020905b815481529060010190602001808311611a2857829003601f168201915b50505050509050919050565b8181600160003373ffffffffffffffffffffffffffffffffffffffff1673ffffffffffffffffffffffffffffffffffffffff1681526020019081526020016000209182611a9f929190612f46565b503373ffffffffffffffffffffffffffffffffffffffff167f74d8e560d2e870c35b35dc882df2a5c96e2bf1cdb5ef6dd2f9cb433c8d0488538383604051611ae8929190613016565b60405180910390a25050565b611afc611b7a565b600073ffffffffffffffffffffffffffffffffffffffff168173ffffffffffffffffffffffffffffffffffffffff1603611b6e5760006040517f1e4fbdf7000000000000000000000000000000000000000000000000000000008152600401611b6591906121c8565b60405180910390fd5b611b7781611c01565b50565b611b82611cc5565b73ffffffffffffffffffffffffffffffffffffffff16611ba061166d565b73ffffffffffffffffffffffffffffffffffffffff1614611bff57611bc3611cc5565b6040517f118cdaa7000000000000000000000000000000000000000000000000000000008152600401611bf691906121c8565b60405180910390fd5b565b60008060009054906101000a900473ffffffffffffffffffffffffffffffffffffffff169050816000806101000a81548173ffffffffffffffffffffffffffffffffffffffff021916908373ffffffffffffffffffffffffffffffffffffffff1602179055508173ffffffffffffffffffffffffffffffffffffffff168173ffffffffffffffffffffffffffffffffffffffff167f8be0079c531659141344cd1fd0a4f28419497f9722a3daafe3b4186f6b6457e060405160405180910390a35050565b600033905090565b600080fd5b600080fd5b600073ffffffffffffffffffffffffffffffffffffffff82169050919050565b6000611d0282611cd7565b9050919050565b611d1281611cf7565b8114611d1d57600080fd5b50565b600081359050611d2f81611d09565b92915050565b6000819050919050565b611d4881611d35565b8114611d5357600080fd5b50565b600081359050611d6581611d3f565b92915050565b600080fd5b600080fd5b600080fd5b60008083601f840112611d9057611d8f611d6b565b5b8235905067ffffffffffffffff811115611dad57611dac611d70565b5b602083019150836001820283011115611dc957611dc8611d75565b5b9250929050565b60008060008060608587031215611dea57611de9611ccd565b5b6000611df887828801611d20565b9450506020611e0987828801611d56565b935050604085013567ffffffffffffffff811115611e2a57611e29611cd2565b5b611e3687828801611d7a565b925092505092959194509250565b611e4d81611d35565b82525050565b6000602082019050611e686000830184611e44565b92915050565b600060208284031215611e8457611e83611ccd565b5b6000611e9284828501611d56565b91505092915050565b600081519050919050565b600082825260208201905092915050565b6000819050602082019050919050565b611ed081611cf7565b82525050565b611edf81611d35565b82525050565b600081519050919050565b600082825260208201905092915050565b60005b83811015611f1f578082015181840152602081019050611f04565b60008484015250505050565b6000601f19601f8301169050919050565b6000611f4782611ee5565b611f518185611ef0565b9350611f61818560208601611f01565b611f6a81611f2b565b840191505092915050565b60008115159050919050565b611f8a81611f75565b82525050565b600061012083016000830151611fa96000860182611ec7565b506020830151611fbc6020860182611ec7565b506040830151611fcf6040860182611ed6565b5060608301518482036060860152611fe78282611f3c565b9150506080830151611ffc6080860182611ed6565b5060a083015184820360a08601526120148282611f3c565b91505060c083015184820360c086015261202e8282611f3c565b91505060e083015161204360e0860182611f81565b50610100830151612058610100860182611f81565b508091505092915050565b600061206f8383611f90565b905092915050565b6000602082019050919050565b600061208f82611e9b565b6120998185611ea6565b9350836020820285016120ab85611eb7565b8060005b858110156120e757848403895281516120c88582612063565b94506120d383612077565b925060208a019950506001810190506120af565b50829750879550505050505092915050565b600060208201905081810360008301526121138184612084565b905092915050565b600061212682611cd7565b9050919050565b6121368161211b565b811461214157600080fd5b50565b6000813590506121538161212d565b92915050565b60008060006040848603121561217257612171611ccd565b5b600061218086828701612144565b935050602084013567ffffffffffffffff8111156121a1576121a0611cd2565b5b6121ad86828701611d7a565b92509250509250925092565b6121c281611cf7565b82525050565b60006020820190506121dd60008301846121b9565b92915050565b600082825260208201905092915050565b60006121ff82611ee5565b61220981856121e3565b9350612219818560208601611f01565b61222281611f2b565b840191505092915050565b61223681611f75565b82525050565b600061012082019050612252600083018c6121b9565b61225f602083018b6121b9565b61226c604083018a611e44565b818103606083015261227e81896121f4565b905061228d6080830188611e44565b81810360a083015261229f81876121f4565b905081810360c08301526122b381866121f4565b90506122c260e083018561222d565b6122d061010083018461222d565b9a9950505050505050505050565b6000602082840312156122f4576122f3611ccd565b5b600061230284828501611d20565b91505092915050565b6000602082019050818103600083015261232581846121f4565b905092915050565b6000806020838503121561234457612343611ccd565b5b600083013567ffffffffffffffff81111561236257612361611cd2565b5b61236e85828601611d7a565b92509250509250929050565b7f416d6f756e74206d7573742062652067726561746572207468616e207a65726f600082015250565b60006123b06020836121e3565b91506123bb8261237a565b602082019050919050565b600060208201905081810360008301526123df816123a3565b9050919050565b7f496e76616c69642073656e646572206164647265737300000000000000000000600082015250565b600061241c6016836121e3565b9150612427826123e6565b602082019050919050565b6000602082019050818103600083015261244b8161240f565b9050919050565b7f43616e6e6f742072657175657374207061796d656e742066726f6d20796f757260008201527f73656c6600000000000000000000000000000000000000000000000000000000602082015250565b60006124ae6024836121e3565b91506124b982612452565b604082019050919050565b600060208201905081810360008301526124dd816124a1565b9050919050565b7f4d65737361676520746f6f206c6f6e6700000000000000000000000000000000600082015250565b600061251a6010836121e3565b9150612525826124e4565b602082019050919050565b600060208201905081810360008301526125498161250d565b9050919050565b7f4e487b7100000000000000000000000000000000000000000000000000000000600052602260045260246000fd5b6000600282049050600182168061259757607f821691505b6020821081036125aa576125a9612550565b5b50919050565b7f4e487b7100000000000000000000000000000000000000000000000000000000600052604160045260246000fd5b60008190508160005260206000209050919050565b60006020601f8301049050919050565b600082821b905092915050565b6000600883026126417fffffffffffffffffffffffffffffffffffffffffffffffffffffffffffffffff82612604565b61264b8683612604565b95508019841693508086168417925050509392505050565b6000819050919050565b600061268861268361267e84611d35565b612663565b611d35565b9050919050565b6000819050919050565b6126a28361266d565b6126b66126ae8261268f565b848454612611565b825550505050565b600090565b6126cb6126be565b6126d6818484612699565b505050565b5b818110156126fa576126ef6000826126c3565b6001810190506126dc565b5050565b601f82111561273f57612710816125df565b612719846125f4565b81016020851015612728578190505b61273c612734856125f4565b8301826126db565b50505b505050565b600082821c905092915050565b600061276260001984600802612744565b1980831691505092915050565b600061277b8383612751565b9150826002028217905092915050565b61279482611ee5565b67ffffffffffffffff8111156127ad576127ac6125b0565b5b6127b7825461257f565b6127c28282856126fe565b600060209050601f8311600181146127f557600084156127e3578287015190505b6127ed858261276f565b865550612855565b601f198416612803866125df565b60005b8281101561282b57848901518255600182019150602085019450602081019050612806565b868310156128485784890151612844601f891682612751565b8355505b6001600288020188555050505b505050505050565b82818337600083830152505050565b600061287883856121e3565b935061288583858461285d565b61288e83611f2b565b840190509392505050565b60006060820190506128ae6000830187611e44565b81810360208301526128c181858761286c565b90506128d06040830184611e44565b95945050505050565b600081905092915050565b50565b60006128f46000836128d9565b91506128ff826128e4565b600082019050919050565b6000612915826128e7565b9150819050919050565b7f4661696c656420746f2073656e64206665657300000000000000000000000000600082015250565b60006129556013836121e3565b91506129608261291f565b602082019050919050565b6000602082019050818103600083015261298481612948565b9050919050565b7f496e76616c6964207265717565737420696e6465780000000000000000000000600082015250565b60006129c16015836121e3565b91506129cc8261298b565b602082019050919050565b600060208201905081810360008301526129f0816129b4565b9050919050565b7f4e487b7100000000000000000000000000000000000000000000000000000000600052603260045260246000fd5b7f4e6f742061207061796d656e7420726571756573740000000000000000000000600082015250565b6000612a5c6015836121e3565b9150612a6782612a26565b602082019050919050565b60006020820190508181036000830152612a8b81612a4f565b9050919050565b7f5265717565737420616c72656164792070616964000000000000000000000000600082015250565b6000612ac86014836121e3565b9150612ad382612a92565b602082019050919050565b60006020820190508181036000830152612af781612abb565b9050919050565b7f4f6e6c792074686520726563697069656e742063616e2070617920746869732060008201527f7265717565737400000000000000000000000000000000000000000000000000602082015250565b6000612b5a6027836121e3565b9150612b6582612afe565b604082019050919050565b60006020820190508181036000830152612b8981612b4d565b9050919050565b7f496e636f7272656374207061796d656e7420616d6f756e740000000000000000600082015250565b6000612bc66018836121e3565b9150612bd182612b90565b602082019050919050565b60006020820190508181036000830152612bf581612bb9565b9050919050565b7f4661696c656420746f2073656e64204554480000000000000000000000000000600082015250565b6000612c326012836121e3565b9150612c3d82612bfc565b602082019050919050565b60006020820190508181036000830152612c6181612c25565b9050919050565b60008154612c758161257f565b612c7f81866121e3565b94506001821660008114612c9a5760018114612cb057612ce3565b60ff198316865281151560200286019350612ce3565b612cb9856125df565b60005b83811015612cdb57815481890152600182019150602081019050612cbc565b808801955050505b50505092915050565b6000606082019050612d016000830186611e44565b8181036020830152612d138185612c68565b9050612d226040830184611e44565b949350505050565b7f496e76616c696420726563697069656e74206164647265737300000000000000600082015250565b6000612d606019836121e3565b9150612d6b82612d2a565b602082019050919050565b60006020820190508181036000830152612d8f81612d53565b9050919050565b7f4e487b7100000000000000000000000000000000000000000000000000000000600052601160045260246000fd5b6000612dd082611d35565b9150612ddb83611d35565b9250828202612de981611d35565b91508282048414831517612e0057612dff612d96565b5b5092915050565b7f4e487b7100000000000000000000000000000000000000000000000000000000600052601260045260246000fd5b6000612e4182611d35565b9150612e4c83611d35565b925082612e5c57612e5b612e07565b5b828204905092915050565b6000612e7282611d35565b9150612e7d83611d35565b9250828203905081811115612e9557612e94612d96565b5b92915050565b6000612ea682611d35565b9150612eb183611d35565b9250828201905080821115612ec957612ec8612d96565b5b92915050565b7f4665652070657263656e7461676520746f6f2068696768000000000000000000600082015250565b6000612f056017836121e3565b9150612f1082612ecf565b602082019050919050565b60006020820190508181036000830152612f3481612ef8565b9050919050565b600082905092915050565b612f508383612f3b565b67ffffffffffffffff811115612f6957612f686125b0565b5b612f73825461257f565b612f7e8282856126fe565b6000601f831160018114612fad5760008415612f9b578287013590505b612fa5858261276f565b86555061300d565b601f198416612fbb866125df565b60005b82811015612fe357848901358255600182019150602085019450602081019050612fbe565b868310156130005784890135612ffc601f891682612751565b8355505b6001600288020188555050505b50505050505050565b6000602082019050818103600083015261303181848661286c565b9050939250505056fea26469706673582212203fcf4490e082155e4a0d89ac6d72e45afbfcaec3277415daa640b7ee345f98c664736f6c63430008180033",
  "linkReferences": {},
  "deployedLinkReferences": {}
}