{
  "_format": "hh-sol-artifact-1",
  "contractName": "PaymentSystem",
  "sourceName": "contracts/PaymentSystem.sol",
  "abi": [
    {
      "anonymous": false,
      "inputs": [
        {
          "indexed": true,
          "internalType": "address",
          "name": "from",
          "type": "address"
        },
        {
          "indexed": true,
          "internalType": "address",
          "name": "to",
          "type": "address"
        },
        {
          "indexed": false,
          "internalType": "uint256",
          "name": "amount",
          "type": "uint256"
        },
        {
          "indexed": false,
          "internalType": "string",
          "name": "message",
          "type": "string"
        },
        {
          "indexed": false,
          "internalType": "uint256",
          "name": "timestamp",
          "type": "uint256"
        }
      ],
      "name": "PaymentRequested",
      "type": "event"
    },
    {
      "anonymous": false,
      "inputs": [
        {
          "indexed": true,
          "internalType": "address",
          "name": "from",
          "type": "address"
        },
        {
          "indexed": true,
          "internalType": "address",
          "name": "to",
          "type": "address"
        },
        {
          "indexed": false,
          "internalType": "uint256",
          "name": "amount",
          "type": "uint256"
        },
        {
          "indexed": false,
          "internalType": "string",
          "name": "message",
          "type": "string"
        },
        {
          "indexed": false,
          "internalType": "uint256",
          "name": "timestamp",
          "type": "uint256"
        }
      ],
      "name": "PaymentSent",
      "type": "event"
    },
    {
      "anonymous": false,
      "inputs": [
        {
          "indexed": true,
          "internalType": "uint256",
          "name": "requestIndex",
          "type": "uint256"
        }
      ],
      "name": "RequestPaid",
      "type": "event"
    },
    {
      "anonymous": false,
      "inputs": [
        {
          "indexed": true,
          "internalType": "address",
          "name": "user",
          "type": "address"
        },
        {
          "indexed": false,
          "internalType": "string",
          "name": "username",
          "type": "string"
        }
      ],
      "name": "UsernameSet",
      "type": "event"
    },
    {
      "inputs": [],
      "name": "getTransactions",
      "outputs": [
        {
          "components": [
            {
              "internalType": "address",
              "name": "sender",
              "type": "address"
            },
            {
              "internalType": "address",
              "name": "receiver",
              "type": "address"
            },
            {
              "internalType": "uint256",
              "name": "amount",
              "type": "uint256"
            },
            {
              "internalType": "string",
              "name": "message",
              "type": "string"
            },
            {
              "internalType": "uint256",
              "name": "timestamp",
              "type": "uint256"
            },
            {
              "internalType": "string",
              "name": "senderUsername",
              "type": "string"
            },
            {
              "internalType": "string",
              "name": "receiverUsername",
              "type": "string"
            },
            {
              "internalType": "bool",
              "name": "isRequest",
              "type": "bool"
            },
            {
              "internalType": "bool",
              "name": "isPaid",
              "type": "bool"
            }
          ],
          "internalType": "struct PaymentSystem.Transaction[]",
          "name": "",
          "type": "tuple[]"
        }
      ],
      "stateMutability": "view",
      "type": "function"
    },
    {
      "inputs": [
        {
          "internalType": "address",
          "name": "account",
          "type": "address"
        }
      ],
      "name": "getUsername",
      "outputs": [
        {
          "internalType": "string",
          "name": "",
          "type": "string"
        }
      ],
      "stateMutability": "view",
      "type": "function"
    },
    {
      "inputs": [
        {
          "internalType": "uint256",
          "name": "requestIndex",
          "type": "uint256"
        }
      ],
      "name": "payRequest",
      "outputs": [],
      "stateMutability": "payable",
      "type": "function"
    },
    {
      "inputs": [
        {
          "internalType": "address",
          "name": "from",
          "type": "address"
        },
        {
          "internalType": "uint256",
          "name": "amount",
          "type": "uint256"
        },
        {
          "internalType": "string",
          "name": "message",
          "type": "string"
        }
      ],
      "name": "requestPayment",
      "outputs": [],
      "stateMutability": "nonpayable",
      "type": "function"
    },
    {
      "inputs": [
        {
          "internalType": "address payable",
          "name": "to",
          "type": "address"
        },
        {
          "internalType": "string",
          "name": "message",
          "type": "string"
        }
      ],
      "name": "sendPayment",
      "outputs": [],
      "stateMutability": "payable",
      "type": "function"
    },
    {
      "inputs": [
        {
          "internalType": "string",
          "name": "username",
          "type": "string"
        }
      ],
      "name": "setUsername",
      "outputs": [],
      "stateMutability": "nonpayable",
      "type": "function"
    },
    {
      "inputs": [
        {
          "internalType": "uint256",
          "name": "",
          "type": "uint256"
        }
      ],
      "name": "transactions",
      "outputs": [
        {
          "internalType": "address",
          "name": "sender",
          "type": "address"
        },
        {
          "internalType": "address",
          "name": "receiver",
          "type": "address"
        },
        {
          "internalType": "uint256",
          "name": "amount",
          "type": "uint256"
        },
        {
          "internalType": "string",
          "name": "message",
          "type": "string"
        },
        {
          "internalType": "uint256",
          "name": "timestamp",
          "type": "uint256"
        },
        {
          "internalType": "string",
          "name": "senderUsername",
          "type": "string"
        },
        {
          "internalType": "string",
          "name": "receiverUsername",
          "type": "string"
        },
        {
          "internalType": "bool",
          "name": "isRequest",
          "type": "bool"
        },
        {
          "internalType": "bool",
          "name": "isPaid",
          "type": "bool"
        }
      ],
      "stateMutability": "view",
      "type": "function"
    }
  ],
  "bytecode": "0x608060405234801561001057600080fd5b50612688806100206000396000f3fe60806040526004361061006f5760003560e01c806385d6bff11161004e57806385d6bff1146100e45780639ace38c214610100578063ce43c03214610145578063ed59313a146101825761006f565b80621bd9721461007457806363d4dd3b1461009d57806383920e90146100b9575b600080fd5b34801561008057600080fd5b5061009b6004803603810190610096919061172d565b6101ab565b005b6100b760048036038101906100b291906117a1565b610662565b005b3480156100c557600080fd5b506100ce6109f9565b6040516100db9190611a2c565b60405180910390f35b6100fe60048036038101906100f99190611a8c565b610d05565b005b34801561010c57600080fd5b50610127600480360381019061012291906117a1565b611268565b60405161013c99989796959493929190611b63565b60405180910390f35b34801561015157600080fd5b5061016c60048036038101906101679190611c05565b6114b8565b6040516101799190611c32565b60405180910390f35b34801561018e57600080fd5b506101a960048036038101906101a49190611c54565b611588565b005b600083116101ee576040517f08c379a00000000000000000000000000000000000000000000000000000000081526004016101e590611ced565b60405180910390fd5b600073ffffffffffffffffffffffffffffffffffffffff168473ffffffffffffffffffffffffffffffffffffffff160361025d576040517f08c379a000000000000000000000000000000000000000000000000000000000815260040161025490611d59565b60405180910390fd5b60016040518061012001604052803373ffffffffffffffffffffffffffffffffffffffff1681526020018673ffffffffffffffffffffffffffffffffffffffff16815260200185815260200184848080601f016020809104026020016040519081016040528093929190818152602001838380828437600081840152601f19601f8201169050808301925050505050505081526020014281526020016000803373ffffffffffffffffffffffffffffffffffffffff1673ffffffffffffffffffffffffffffffffffffffff168152602001908152602001600020805461034290611da8565b80601f016020809104026020016040519081016040528092919081815260200182805461036e90611da8565b80156103bb5780601f10610390576101008083540402835291602001916103bb565b820191906000526020600020905b81548152906001019060200180831161039e57829003601f168201915b505050505081526020016000808873ffffffffffffffffffffffffffffffffffffffff1673ffffffffffffffffffffffffffffffffffffffff168152602001908152602001600020805461040e90611da8565b80601f016020809104026020016040519081016040528092919081815260200182805461043a90611da8565b80156104875780601f1061045c57610100808354040283529160200191610487565b820191906000526020600020905b81548152906001019060200180831161046a57829003601f168201915b5050505050815260200160011515815260200160001515815250908060018154018082558091505060019003906000526020600020906008020160009091909190915060008201518160000160006101000a81548173ffffffffffffffffffffffffffffffffffffffff021916908373ffffffffffffffffffffffffffffffffffffffff16021790555060208201518160010160006101000a81548173ffffffffffffffffffffffffffffffffffffffff021916908373ffffffffffffffffffffffffffffffffffffffff1602179055506040820151816002015560608201518160030190816105779190611fb4565b506080820151816004015560a08201518160050190816105979190611fb4565b5060c08201518160060190816105ad9190611fb4565b5060e08201518160070160006101000a81548160ff0219169083151502179055506101008201518160070160016101000a81548160ff02191690831515021790555050508373ffffffffffffffffffffffffffffffffffffffff163373ffffffffffffffffffffffffffffffffffffffff167f127bc6be5af16cacedd640d3c5688a4c07815499ac0f88ec7633ac31a5956d768585854260405161065494939291906120c2565b60405180910390a350505050565b60018054905081106106a9576040517f08c379a00000000000000000000000000000000000000000000000000000000081526004016106a09061214e565b60405180910390fd5b6000600182815481106106bf576106be61216e565b5b906000526020600020906008020190508060070160009054906101000a900460ff16610720576040517f08c379a0000000000000000000000000000000000000000000000000000000008152600401610717906121e9565b60405180910390fd5b8060070160019054906101000a900460ff1615610772576040517f08c379a000000000000000000000000000000000000000000000000000000000815260040161076990612255565b60405180910390fd5b8060010160009054906101000a900473ffffffffffffffffffffffffffffffffffffffff1673ffffffffffffffffffffffffffffffffffffffff163373ffffffffffffffffffffffffffffffffffffffff1614610804576040517f08c379a00000000000000000000000000000000000000000000000000000000081526004016107fb906122e7565b60405180910390fd5b8060020154341461084a576040517f08c379a000000000000000000000000000000000000000000000000000000000815260040161084190612353565b60405180910390fd5b60008160000160009054906101000a900473ffffffffffffffffffffffffffffffffffffffff1673ffffffffffffffffffffffffffffffffffffffff1634604051610894906123a4565b60006040518083038185875af1925050503d80600081146108d1576040519150601f19603f3d011682016040523d82523d6000602084013e6108d6565b606091505b505090508061091a576040517f08c379a000000000000000000000000000000000000000000000000000000000815260040161091190612405565b60405180910390fd5b60018260070160016101000a81548160ff0219169083151502179055508160000160009054906101000a900473ffffffffffffffffffffffffffffffffffffffff1673ffffffffffffffffffffffffffffffffffffffff163373ffffffffffffffffffffffffffffffffffffffff167fda515d405df3308cfeb0f865bbc8fa44300e8e9bcf76dbe16a404ecd52c517553485600301426040516109bf939291906124a9565b60405180910390a3827fc6cd0a365a4a735e53cb7919a6d050782900166aacc1210aef8b7ec68ff2dd7b60405160405180910390a2505050565b60606001805480602002602001604051908101604052809291908181526020016000905b82821015610cfc5783829060005260206000209060080201604051806101200160405290816000820160009054906101000a900473ffffffffffffffffffffffffffffffffffffffff1673ffffffffffffffffffffffffffffffffffffffff1673ffffffffffffffffffffffffffffffffffffffff1681526020016001820160009054906101000a900473ffffffffffffffffffffffffffffffffffffffff1673ffffffffffffffffffffffffffffffffffffffff1673ffffffffffffffffffffffffffffffffffffffff16815260200160028201548152602001600382018054610b0790611da8565b80601f0160208091040260200160405190810160405280929190818152602001828054610b3390611da8565b8015610b805780601f10610b5557610100808354040283529160200191610b80565b820191906000526020600020905b815481529060010190602001808311610b6357829003601f168201915b5050505050815260200160048201548152602001600582018054610ba390611da8565b80601f0160208091040260200160405190810160405280929190818152602001828054610bcf90611da8565b8015610c1c5780601f10610bf157610100808354040283529160200191610c1c565b820191906000526020600020905b815481529060010190602001808311610bff57829003601f168201915b50505050508152602001600682018054610c3590611da8565b80601f0160208091040260200160405190810160405280929190818152602001828054610c6190611da8565b8015610cae5780601f10610c8357610100808354040283529160200191610cae565b820191906000526020600020905b815481529060010190602001808311610c9157829003601f168201915b505050505081526020016007820160009054906101000a900460ff161515151581526020016007820160019054906101000a900460ff16151515158152505081526020019060010190610a1d565b50505050905090565b60003411610d48576040517f08c379a0000000000000000000000000000000000000000000000000000000008152600401610d3f90611ced565b60405180910390fd5b600073ffffffffffffffffffffffffffffffffffffffff168373ffffffffffffffffffffffffffffffffffffffff1603610db7576040517f08c379a0000000000000000000000000000000000000000000000000000000008152600401610dae90612533565b60405180910390fd5b60008373ffffffffffffffffffffffffffffffffffffffff1634604051610ddd906123a4565b60006040518083038185875af1925050503d8060008114610e1a576040519150601f19603f3d011682016040523d82523d6000602084013e610e1f565b606091505b5050905080610e63576040517f08c379a0000000000000000000000000000000000000000000000000000000008152600401610e5a90612405565b60405180910390fd5b60016040518061012001604052803373ffffffffffffffffffffffffffffffffffffffff1681526020018673ffffffffffffffffffffffffffffffffffffffff16815260200134815260200185858080601f016020809104026020016040519081016040528093929190818152602001838380828437600081840152601f19601f8201169050808301925050505050505081526020014281526020016000803373ffffffffffffffffffffffffffffffffffffffff1673ffffffffffffffffffffffffffffffffffffffff1681526020019081526020016000208054610f4890611da8565b80601f0160208091040260200160405190810160405280929190818152602001828054610f7490611da8565b8015610fc15780601f10610f9657610100808354040283529160200191610fc1565b820191906000526020600020905b815481529060010190602001808311610fa457829003601f168201915b505050505081526020016000808873ffffffffffffffffffffffffffffffffffffffff1673ffffffffffffffffffffffffffffffffffffffff168152602001908152602001600020805461101490611da8565b80601f016020809104026020016040519081016040528092919081815260200182805461104090611da8565b801561108d5780601f106110625761010080835404028352916020019161108d565b820191906000526020600020905b81548152906001019060200180831161107057829003601f168201915b5050505050815260200160001515815260200160011515815250908060018154018082558091505060019003906000526020600020906008020160009091909190915060008201518160000160006101000a81548173ffffffffffffffffffffffffffffffffffffffff021916908373ffffffffffffffffffffffffffffffffffffffff16021790555060208201518160010160006101000a81548173ffffffffffffffffffffffffffffffffffffffff021916908373ffffffffffffffffffffffffffffffffffffffff16021790555060408201518160020155606082015181600301908161117d9190611fb4565b506080820151816004015560a082015181600501908161119d9190611fb4565b5060c08201518160060190816111b39190611fb4565b5060e08201518160070160006101000a81548160ff0219169083151502179055506101008201518160070160016101000a81548160ff02191690831515021790555050508373ffffffffffffffffffffffffffffffffffffffff163373ffffffffffffffffffffffffffffffffffffffff167fda515d405df3308cfeb0f865bbc8fa44300e8e9bcf76dbe16a404ecd52c517553486864260405161125a94939291906120c2565b60405180910390a350505050565b6001818154811061127857600080fd5b90600052602060002090600802016000915090508060000160009054906101000a900473ffffffffffffffffffffffffffffffffffffffff16908060010160009054906101000a900473ffffffffffffffffffffffffffffffffffffffff16908060020154908060030180546112ed90611da8565b80601f016020809104026020016040519081016040528092919081815260200182805461131990611da8565b80156113665780601f1061133b57610100808354040283529160200191611366565b820191906000526020600020905b81548152906001019060200180831161134957829003601f168201915b50505050509080600401549080600501805461138190611da8565b80601f01602080910402602001604051908101604052809291908181526020018280546113ad90611da8565b80156113fa5780601f106113cf576101008083540402835291602001916113fa565b820191906000526020600020905b8154815290600101906020018083116113dd57829003601f168201915b50505050509080600601805461140f90611da8565b80601f016020809104026020016040519081016040528092919081815260200182805461143b90611da8565b80156114885780601f1061145d57610100808354040283529160200191611488565b820191906000526020600020905b81548152906001019060200180831161146b57829003601f168201915b5050505050908060070160009054906101000a900460ff16908060070160019054906101000a900460ff16905089565b60606000808373ffffffffffffffffffffffffffffffffffffffff1673ffffffffffffffffffffffffffffffffffffffff168152602001908152602001600020805461150390611da8565b80601f016020809104026020016040519081016040528092919081815260200182805461152f90611da8565b801561157c5780601f106115515761010080835404028352916020019161157c565b820191906000526020600020905b81548152906001019060200180831161155f57829003601f168201915b50505050509050919050565b81816000803373ffffffffffffffffffffffffffffffffffffffff1673ffffffffffffffffffffffffffffffffffffffff16815260200190815260200160002091826115d592919061255e565b503373ffffffffffffffffffffffffffffffffffffffff167f74d8e560d2e870c35b35dc882df2a5c96e2bf1cdb5ef6dd2f9cb433c8d048853838360405161161e92919061262e565b60405180910390a25050565b600080fd5b600080fd5b600073ffffffffffffffffffffffffffffffffffffffff82169050919050565b600061165f82611634565b9050919050565b61166f81611654565b811461167a57600080fd5b50565b60008135905061168c81611666565b92915050565b6000819050919050565b6116a581611692565b81146116b057600080fd5b50565b6000813590506116c28161169c565b92915050565b600080fd5b600080fd5b600080fd5b60008083601f8401126116ed576116ec6116c8565b5b8235905067ffffffffffffffff81111561170a576117096116cd565b5b602083019150836001820283011115611726576117256116d2565b5b9250929050565b600080600080606085870312156117475761174661162a565b5b60006117558782880161167d565b9450506020611766878288016116b3565b935050604085013567ffffffffffffffff8111156117875761178661162f565b5b611793878288016116d7565b925092505092959194509250565b6000602082840312156117b7576117b661162a565b5b60006117c5848285016116b3565b91505092915050565b600081519050919050565b600082825260208201905092915050565b6000819050602082019050919050565b61180381611654565b82525050565b61181281611692565b82525050565b600081519050919050565b600082825260208201905092915050565b60005b83811015611852578082015181840152602081019050611837565b60008484015250505050565b6000601f19601f8301169050919050565b600061187a82611818565b6118848185611823565b9350611894818560208601611834565b61189d8161185e565b840191505092915050565b60008115159050919050565b6118bd816118a8565b82525050565b6000610120830160008301516118dc60008601826117fa565b5060208301516118ef60208601826117fa565b5060408301516119026040860182611809565b506060830151848203606086015261191a828261186f565b915050608083015161192f6080860182611809565b5060a083015184820360a0860152611947828261186f565b91505060c083015184820360c0860152611961828261186f565b91505060e083015161197660e08601826118b4565b5061010083015161198b6101008601826118b4565b508091505092915050565b60006119a283836118c3565b905092915050565b6000602082019050919050565b60006119c2826117ce565b6119cc81856117d9565b9350836020820285016119de856117ea565b8060005b85811015611a1a57848403895281516119fb8582611996565b9450611a06836119aa565b925060208a019950506001810190506119e2565b50829750879550505050505092915050565b60006020820190508181036000830152611a4681846119b7565b905092915050565b6000611a5982611634565b9050919050565b611a6981611a4e565b8114611a7457600080fd5b50565b600081359050611a8681611a60565b92915050565b600080600060408486031215611aa557611aa461162a565b5b6000611ab386828701611a77565b935050602084013567ffffffffffffffff811115611ad457611ad361162f565b5b611ae0868287016116d7565b92509250509250925092565b611af581611654565b82525050565b611b0481611692565b82525050565b600082825260208201905092915050565b6000611b2682611818565b611b308185611b0a565b9350611b40818560208601611834565b611b498161185e565b840191505092915050565b611b5d816118a8565b82525050565b600061012082019050611b79600083018c611aec565b611b86602083018b611aec565b611b93604083018a611afb565b8181036060830152611ba58189611b1b565b9050611bb46080830188611afb565b81810360a0830152611bc68187611b1b565b905081810360c0830152611bda8186611b1b565b9050611be960e0830185611b54565b611bf7610100830184611b54565b9a9950505050505050505050565b600060208284031215611c1b57611c1a61162a565b5b6000611c298482850161167d565b91505092915050565b60006020820190508181036000830152611c4c8184611b1b565b905092915050565b60008060208385031215611c6b57611c6a61162a565b5b600083013567ffffffffffffffff811115611c8957611c8861162f565b5b611c95858286016116d7565b92509250509250929050565b7f416d6f756e74206d7573742062652067726561746572207468616e207a65726f600082015250565b6000611cd7602083611b0a565b9150611ce282611ca1565b602082019050919050565b60006020820190508181036000830152611d0681611cca565b9050919050565b7f496e76616c69642073656e646572206164647265737300000000000000000000600082015250565b6000611d43601683611b0a565b9150611d4e82611d0d565b602082019050919050565b60006020820190508181036000830152611d7281611d36565b9050919050565b7f4e487b7100000000000000000000000000000000000000000000000000000000600052602260045260246000fd5b60006002820490506001821680611dc057607f821691505b602082108103611dd357611dd2611d79565b5b50919050565b7f4e487b7100000000000000000000000000000000000000000000000000000000600052604160045260246000fd5b60008190508160005260206000209050919050565b60006020601f8301049050919050565b600082821b905092915050565b600060088302611e6a7fffffffffffffffffffffffffffffffffffffffffffffffffffffffffffffffff82611e2d565b611e748683611e2d565b95508019841693508086168417925050509392505050565b6000819050919050565b6000611eb1611eac611ea784611692565b611e8c565b611692565b9050919050565b6000819050919050565b611ecb83611e96565b611edf611ed782611eb8565b848454611e3a565b825550505050565b600090565b611ef4611ee7565b611eff818484611ec2565b505050565b5b81811015611f2357611f18600082611eec565b600181019050611f05565b5050565b601f821115611f6857611f3981611e08565b611f4284611e1d565b81016020851015611f51578190505b611f65611f5d85611e1d565b830182611f04565b50505b505050565b600082821c905092915050565b6000611f8b60001984600802611f6d565b1980831691505092915050565b6000611fa48383611f7a565b9150826002028217905092915050565b611fbd82611818565b67ffffffffffffffff811115611fd657611fd5611dd9565b5b611fe08254611da8565b611feb828285611f27565b600060209050601f83116001811461201e576000841561200c578287015190505b6120168582611f98565b86555061207e565b601f19841661202c86611e08565b60005b828110156120545784890151825560018201915060208501945060208101905061202f565b86831015612071578489015161206d601f891682611f7a565b8355505b6001600288020188555050505b505050505050565b82818337600083830152505050565b60006120a18385611b0a565b93506120ae838584612086565b6120b78361185e565b840190509392505050565b60006060820190506120d76000830187611afb565b81810360208301526120ea818587612095565b90506120f96040830184611afb565b95945050505050565b7f496e76616c6964207265717565737420696e6465780000000000000000000000600082015250565b6000612138601583611b0a565b915061214382612102565b602082019050919050565b600060208201905081810360008301526121678161212b565b9050919050565b7f4e487b7100000000000000000000000000000000000000000000000000000000600052603260045260246000fd5b7f4e6f742061207061796d656e7420726571756573740000000000000000000000600082015250565b60006121d3601583611b0a565b91506121de8261219d565b602082019050919050565b60006020820190508181036000830152612202816121c6565b9050919050565b7f5265717565737420616c72656164792070616964000000000000000000000000600082015250565b600061223f601483611b0a565b915061224a82612209565b602082019050919050565b6000602082019050818103600083015261226e81612232565b9050919050565b7f4f6e6c792074686520726563697069656e742063616e2070617920746869732060008201527f7265717565737400000000000000000000000000000000000000000000000000602082015250565b60006122d1602783611b0a565b91506122dc82612275565b604082019050919050565b60006020820190508181036000830152612300816122c4565b9050919050565b7f496e636f7272656374207061796d656e7420616d6f756e740000000000000000600082015250565b600061233d601883611b0a565b915061234882612307565b602082019050919050565b6000602082019050818103600083015261236c81612330565b9050919050565b600081905092915050565b50565b600061238e600083612373565b91506123998261237e565b600082019050919050565b60006123af82612381565b9150819050919050565b7f4661696c656420746f2073656e64204554480000000000000000000000000000600082015250565b60006123ef601283611b0a565b91506123fa826123b9565b602082019050919050565b6000602082019050818103600083015261241e816123e2565b9050919050565b6000815461243281611da8565b61243c8186611b0a565b94506001821660008114612457576001811461246d576124a0565b60ff1983168652811515602002860193506124a0565b61247685611e08565b60005b8381101561249857815481890152600182019150602081019050612479565b808801955050505b50505092915050565b60006060820190506124be6000830186611afb565b81810360208301526124d08185612425565b90506124df6040830184611afb565b949350505050565b7f496e76616c696420726563697069656e74206164647265737300000000000000600082015250565b600061251d601983611b0a565b9150612528826124e7565b602082019050919050565b6000602082019050818103600083015261254c81612510565b9050919050565b600082905092915050565b6125688383612553565b67ffffffffffffffff81111561258157612580611dd9565b5b61258b8254611da8565b612596828285611f27565b6000601f8311600181146125c557600084156125b3578287013590505b6125bd8582611f98565b865550612625565b601f1984166125d386611e08565b60005b828110156125fb578489013582556001820191506020850194506020810190506125d6565b868310156126185784890135612614601f891682611f7a565b8355505b6001600288020188555050505b50505050505050565b60006020820190508181036000830152612649818486612095565b9050939250505056fea2646970667358221220e3568607cd4fded11db3ca72478e9d7145101c4305c3b27b7c3f0fb8404a6adf64736f6c63430008180033",
  "linkReferences": {},
  "deployedLinkReferences": {}
}